:020000040800F2
:100000000000022031720008BD710008BF710008B5
:10001000C1710008C3710008C5710008000000002C
:10002000000000000000000000000000C771000890
:10003000C971000800000000CB710008CD710008F4
:1000400081720008817200088172000881720008C4
:1000500081720008817200088172000881720008B4
:1000600081720008817200088172000881720008A4
:100070008172000881720008817200088172000894
:100080008172000881720008817200088172000884
:100090008172000881720008817200088172000874
:1000A0008172000881720008817200088172000864
:1000B0008172000881720008817200088172000854
:1000C0008172000881720008817200088172000844
:1000D000817200088172000881720008D5710008E1
:1000E0008172000881720008817200088172000824
:1000F0008172000881720008817200088172000814
:100100008172000881720008817200088172000803
:1001100081720008817200088172000881720008F3
:1001200081720008817200088172000881720008E3
:1001300081720008000000000000000081720008C9
:1001400081720008817200088172000881720008C3
:1001500081720008817200088172000881720008B3
:1001600081720008817200088172000881720008A3
:10017000817200088172000881720008000000008E
:100180000000000081720008000000000000000074
:100190008172000800000000000000008172000869
:1001A0000000000000000000000000008172000854
:1001B0008172000881720008817200088172000853
:0401C0008172000840
:1001D00010B5054C237833B9044B13B10448AFF381
:1001E00000800123237010BD980200200000000051
:1001F000E4B5000808B5034B1BB103490348AFF34E
:10020000008008BD000000009C020020E4B500084A
:1002100081F0004102E000BF83F0004330B54FEAB7
:1002200041044FEA430594EA050F08BF90EA020F24
:100230001FBF54EA000C55EA020C7FEA645C7FEAB7
:10024000655C00F0E2804FEA5454D4EB5555B8BFDA
:100250006D420CDD2C4480EA020281EA030382EA4B
:10026000000083EA010180EA020281EA0303362DDD
:1002700088BF30BD11F0004F4FEA01314FF4801CB0
:100280004CEA113102D0404261EB410113F0004FC2
:100290004FEA03334CEA133302D0524263EB430379
:1002A00094EA050F00F0A780A4F10104D5F1200E17
:1002B0000DDB02FA0EFC22FA05F2801841F1000172
:1002C00003FA0EF2801843FA05F359410EE0A5F146
:1002D00020050EF1200E012A03FA0EFC28BF4CF077
:1002E000020C43FA05F3C01851EBE37101F000452D
:1002F00007D54FF0000EDCF1000C7EEB00006EEB3A
:100300000101B1F5801F1BD3B1F5001F0CD34908C3
:100310005FEA30004FEA3C0C04F101044FEA44521A
:1003200012F5800F80F09A80BCF1004F08BF5FEAA1
:10033000500C50F1000041EB045141EA050130BD81
:100340005FEA4C0C404141EB010111F4801FA4F124
:100350000104E9D191F0000F04BF01460020B1FA79
:1003600081F308BF2033A3F10B03B3F120020CDAB1
:100370000C3208DD02F1140CC2F10C0201FA0CF08F
:1003800021FA02F10CE002F11402D8BFC2F1200CF4
:1003900001FA02F120FA0CFCDCBF41EA0C019040AA
:1003A000E41AA2BF01EB0451294330BD6FEA0404F3
:1003B0001F3C1CDA0C340EDC04F11404C4F12002DE
:1003C00020FA04F001FA02F340EA030021FA04F3F0
:1003D00045EA030130BDC4F10C04C4F1200220FA47
:1003E00002F001FA04F340EA0300294630BD21FA85
:1003F00004F0294630BD94F0000F83F4801306BF4B
:1004000081F480110134013D4EE77FEA645C18BF3E
:100410007FEA655C29D094EA050F08BF90EA020FD5
:1004200005D054EA000C04BF1946104630BD91EACD
:10043000030F1EBF0021002030BD5FEA545C05D1D0
:100440004000494128BF41F0004130BD14F580040F
:100450003CBF01F5801130BD01F0004545F0FE4183
:1004600041F470014FF0000030BD7FEA645C1ABFB8
:10047000194610467FEA655C1CBF0B46024650EAEF
:10048000013406BF52EA033591EA030F41F400211B
:1004900030BD00BF90F0000F04BF0021704730B5A1
:1004A0004FF4806404F132044FF000054FF0000176
:1004B00050E700BF90F0000F04BF0021704730B537
:1004C0004FF4806404F1320410F0004548BF40420C
:1004D0004FF000013EE700BF42004FEAE2014FEA61
:1004E00031014FEA02701FBF12F07F4393F07F4F3C
:1004F00081F06051704732F07F4208BF704793F03F
:100500007F4F04BF41F40021704730B54FF4607451
:1005100001F0004521F000411CE700BF50EA010254
:1005200008BF704730B54FF000050AE050EA0102FD
:1005300008BF704730B511F0004502D5404261EB6D
:1005400041014FF4806404F132045FEA915C3FF4AE
:10055000D8AE4FF003025FEADC0C18BF03325FEA4B
:10056000DC0C18BF033202EBDC02C2F1200300FAFC
:1005700003FC20FA02F001FA03FE40EA0E0021FA21
:1005800002F11444BDE600BF70B54FF0FF0C4CF40F
:10059000E06C1CEA11541DBF1CEA135594EA0C0FC1
:1005A00095EA0C0F00F0DEF82C4481EA030621EAFC
:1005B0004C5123EA4C5350EA013518BF52EA033537
:1005C00041F4801143F4801338D0A0FB02CE4FF0E9
:1005D0000005E1FB02E506F00042E0FB03E54FF019
:1005E0000006E1FB03569CF0000F18BF4EF0010E11
:1005F000A4F1FF04B6F5007F64F5407404D25FEA0D
:100600004E0E6D4146EB060642EAC62141EA5551BF
:100610004FEAC52040EA5E504FEACE2EB4F1FD0C01
:1006200088BFBCF5E06F1ED8BEF1004F08BF5FEA7F
:10063000500E50F1000041EB045170BD06F0004631
:1006400046EA010140EA020081EA0301B4EB5C04DE
:10065000C2BFD4EB0C0541EA045170BD41F48011D6
:100660004FF0000E013C00F3AB8014F1360FDEBFFB
:10067000002001F0004170BDC4F10004203C35DAD7
:100680000C341BDC04F11404C4F1200500FA05F35A
:1006900020FA04F001FA05F240EA020001F00042FB
:1006A00021F0004110EBD37021FA04F642EB060171
:1006B0005EEA430E08BF20EAD37070BDC4F10C049B
:1006C000C4F1200500FA04F320FA05F001FA04F25F
:1006D00040EA020001F0004110EBD37041F100014B
:1006E0005EEA430E08BF20EAD37070BDC4F1200556
:1006F00000FA05F24EEA020E20FA04F301FA05F2BE
:1007000043EA020321FA04F001F0004121FA04F265
:1007100020EA020000EBD3705EEA430E08BF20EA35
:10072000D37070BD94F0000F0FD101F0004640006F
:1007300041EB010111F4801F08BF013CF7D041EAF1
:10074000060195F0000F18BF704703F000465200F5
:1007500043EB030313F4801F08BF013DF7D043EAC6
:100760000603704794EA0C0F0CEA135518BF95EA7C
:100770000C0F0CD050EA410618BF52EA4306D1D103
:1007800081EA030101F000414FF0000070BD50EA22
:10079000410606BF1046194652EA430619D094EAAC
:1007A0000C0F02D150EA013613D195EA0C0F05D196
:1007B00052EA03361CBF104619460AD181EA0301EA
:1007C00001F0004141F0FE4141F470014FF00000A2
:1007D00070BD41F0FE4141F4780170BD70B54FF03D
:1007E000FF0C4CF4E06C1CEA11541DBF1CEA1355BD
:1007F00094EA0C0F95EA0C0F00F0A7F8A4EB05049F
:1008000081EA030E52EA03354FEA013100F0888095
:100810004FEA03334FF0805545EA131343EA12635E
:100820004FEA022245EA111545EA10654FEA002613
:100830000EF000419D4208BF964244F1FD0404F5CC
:10084000407402D25B084FEA3202B61A65EB030528
:100850005B084FEA32024FF480104FF4002CB6EBE5
:10086000020E75EB030E22BFB61A754640EA0C0065
:100870005B084FEA3202B6EB020E75EB030E22BFA5
:10088000B61A754640EA5C005B084FEA3202B6EBE6
:10089000020E75EB030E22BFB61A754640EA9C00A5
:1008A0005B084FEA3202B6EB020E75EB030E22BF75
:1008B000B61A754640EADC0055EA060E18D04FEA33
:1008C000051545EA16754FEA06164FEAC30343EAD3
:1008D00052734FEAC2025FEA1C1CC0D111F4801FA0
:1008E0000BD141EA00014FF000004FF0004CB6E799
:1008F00011F4801F04BF01430020B4F1FD0C88BF38
:10090000BCF5E06F3FF6AFAEB5EB030C04BFB6EB42
:10091000020C5FEA500C50F1000041EB045170BD35
:100920000EF0004E4EEA113114EB5C04C2BFD4EB62
:100930000C0541EA045170BD41F480114FF0000EE6
:10094000013C90E645EA060E8DE60CEA135594EA62
:100950000C0F08BF95EA0C0F3FF43BAF94EA0C0F65
:100960000AD150EA01347FF434AF95EA0C0F7FF4DA
:1009700025AF104619462CE795EA0C0F06D152EA2E
:1009800003353FF4FDAE1046194622E750EA410612
:1009900018BF52EA43067FF4C5AE50EA41047FF423
:1009A0000DAF52EA43057FF4EBAE12E753B94AB9F3
:1009B000002908BF00281CBF4FF0FF314FF0FF3067
:1009C00000F072B9ADF1080C6DE904CE00F006F844
:1009D000DDF804E0DDE9022304B070472DE9F047BB
:1009E000089E04468846002B4BD18A42154667D99B
:1009F000B2FA82F24AB1C2F1200701FA02F320FAF8
:100A000007F7954047EA030894404FEA154E230C38
:100A1000B8FBFEF71FFA85FC0EFB178843EA084374
:100A200007FB0CF1994209D9EB1807F1FF3080F070
:100A30001B81994240F21881023F2B445B1AA4B2F9
:100A4000B3FBFEF00EFB103344EA034400FB0CFC46
:100A5000A44509D92C1900F1FF3380F00781A44582
:100A600040F2048102382C4440EA0740A4EB0C0415
:100A700000271EB1D4400023C6E900433946BDE833
:100A8000F0878B4209D9002E00F0EB800027C6E9E1
:100A9000000138463946BDE8F087B3FA83F7002FE6
:100AA00047D18B4202D3824200F2FA80841A61EB72
:100AB000030301209846002EE0D0C6E90048DDE798
:100AC00002B9FFDEB2FA82F2002A40F08F80491BA1
:100AD0004FEA154E1FFA85F80127B1FBFEFC230CE7
:100AE0000EFB1C1143EA014308FB0CF1994207D9A4
:100AF000EB180CF1FF3002D2994200F2CD8084460F
:100B0000591AA3B2B1FBFEF00EFB101443EA0444E1
:100B100008FB00F8A04507D92C1900F1FF3302D2D9
:100B2000A04500F2B6801846A4EB080440EA0C4049
:100B30009FE7C7F1200CBB4022FA0CFE4EEA030EE1
:100B400001FA07F420FA0CF521FA0CF34FEA1E48DB
:100B50002543B3FBF8F92C0C08FB19331FFA8EFA66
:100B600044EA034309FB0AF49C4202FA07F200FA42
:100B700007F10BD91EEB030309F1FF3080F08780EA
:100B80009C4240F28480A9F1020973441B1BADB260
:100B9000B3FBF8F008FB103345EA034400FB0AFA04
:100BA000A24508D91EEB040400F1FF336BD2A24525
:100BB00069D90238744440EA0940A0FB0289A4EBD9
:100BC0000A044C45C2464B4654D351D0002E69D03E
:100BD000B1EB0A0564EB030404FA0CFCFD40FC4095
:100BE0004CEA0505C6E90054002747E7C2F1200397
:100BF00020FA03F7954001FA02F021FA03F34FEAD5
:100C0000154E3843010CB3FBFEF71FFA85F80EFBB7
:100C1000173341EA034107FB08F38B4204FA02F45D
:100C200007D9691807F1FF3C2FD28B422DD9023F1B
:100C30002944CB1A81B2B3FBFEF00EFB103341EA1C
:100C4000034100FB08F38B4207D9691800F1FF3C10
:100C500017D28B4215D902382944C91A40EA0747EE
:100C60003BE73746304609E70746E7E61846FBE626
:100C70004145ABD2B8EB020A69EB0E0201381346CC
:100C8000A4E76046E9E7184695E76746D1E781465D
:100C90007CE702382C4447E7ACF1020C2B442FE7E9
:100CA000384608E73746E9E6704700BF10F8012BE1
:100CB00011F8013B012A28BF9A42F7D0D01A704799
:100CC000034613F8012B002AFBD1181A013870478C
:100CD00001F0FF01102A2BDB10F0070F08D010F8ED
:100CE000013B013A8B422DD010F0070F42B3F6D1F1
:100CF000F0B441EA012141EA014122F007047FF00A
:100D000000070023F0E80256083C85EA010586EA60
:100D1000010685FA47F5A3FA87F586FA47F6A5FA9C
:100D200087F68EB9EED1F0BC01F0FF0102F00702A8
:100D300032B110F8013B013A83EA010313B1F8D153
:100D40000020704701387047002D06BF3546033834
:100D5000073815F0010F07D1013015F4807F02BF6D
:100D6000013015F4C03F0130F0BC0138704700BFBE
:100D70004FF0FF3C06E000BF4FF0010C02E000BF67
:100D80004FF0010C4DF804CD4FEA410C7FEA6C5C4A
:100D90004FEA430C18BF7FEA6C5C1BD001B050EAED
:100DA000410C0CBF52EA430C91EA030F02BF90EAD8
:100DB000020F0020704710F1000F91EA030F58BF97
:100DC000994208BF90422CBFD8176FEAE37040F0F9
:100DD000010070474FEA410C7FEA6C5C02D150EA97
:100DE000013C07D14FEA430C7FEA6C5CD6D152EA52
:100DF000033CD3D05DF8040B704700BF8446104617
:100E000062468C461946634600E000BF01B5FFF715
:100E1000B7FF002848BF10F1000F01BD4DF808EDE5
:100E2000FFF7F4FF0CBF012000205DF808FB00BFB6
:100E30004DF808EDFFF7EAFF34BF012000205DF810
:100E400008FB00BF4DF808EDFFF7E0FF94BF01205D
:100E500000205DF808FB00BF4DF808EDFFF7CEFF5E
:100E600094BF012000205DF808FB00BF4DF808ED9D
:100E7000FFF7C4FF34BF012000205DF808FB00BF6E
:100E80004FEA410C7FEA6C5C02D150EA013C0AD186
:100E90004FEA430C7FEA6C5C02D152EA033C02D178
:100EA0004FF0000070474FF0010070474FEA4102D9
:100EB00012F5001215D211D56FF47873B3EB6252AC
:100EC00012D94FEAC12343F0004343EA505311F0D3
:100ED000004F23FA02F018BF404270474FF0000065
:100EE000704750EA013005D111F0004008BF6FF0A3
:100EF000004070474FF00000704700BF4A0011D219
:100F000012F5001211D20DD56FF47873B3EB625263
:100F10000ED44FEAC12343F0004343EA505323FA6F
:100F200002F070474FF00000704750EA013002D1E4
:100F30004FF0FF3070474FF0000070474FEA41021A
:100F4000B2F1E04324BFB3F5001CDCF1FE5C0DD927
:100F500001F0004C4FEAC0024CEA5070B2F1004F71
:100F600040EB830008BF20F00100704711F0804F74
:100F700021D113F13872BCBF01F00040704741F439
:100F800080114FEA5252C2F11802C2F1200C10FA3D
:100F90000CF320FA02F018BF40F001004FEAC12321
:100FA0004FEAD32303FA0CFC40EA0C0023FA02F3C5
:100FB0004FEA4303CCE77FEA625307D150EA01339B
:100FC0001EBF4FF0FE4040F44000704701F000406B
:100FD00040F0FE4040F40000704700BF10B50446EA
:100FE0000E4B18784FF47A73B3FBF0F30C4A106889
:100FF000B0FBF3F000F0A8F868B90F2C01D901207C
:101000000AE0002221464FF0FF3000F05DF8034B6C
:101010005C60002000E0012010BD00BF0000002047
:10102000C000002008B50B4B1A6842F400721A6029
:101030001A6842F480621A601A6842F480721A6078
:10104000032000F02FF80020FFF7C8FF05F088FF0D
:10105000002008BD003C0240034A1168034B1B7886
:101060000B441360704700BF7C0700200000002085
:10107000014B1868704700BF7C07002038B5044654
:10108000FFF7F6FF0546B4F1FF3F02D0044B1B7893
:101090001C44FFF7EDFF401BA042FAD338BD00BF50
:1010A00000000020074AD36823F4E0631B041B0CF4
:1010B000000200F4E060184340F0BF6040F40030EC
:1010C000D060704700ED00E030B4174BDB68C3F32D
:1010D0000223C3F10704042C28BF04241D1D062D80
:1010E00018D9033B4FF0FF3505FA04F421EA040157
:1010F000994005FA03F322EA0303194300280BDBA6
:101100000901C9B200F1604000F5614080F80013A8
:1011100030BC70470023E5E700F00F000901C9B2B9
:10112000024B1954F4E700BF00ED00E014ED00E0BD
:1011300000F01F02400901239340024A42F8203088
:10114000704700BF00E100E00138B0F1807F0AD2B3
:10115000064B5860064AF02182F823100020986060
:1011600007221A6070470120704700BF10E000E0BE
:1011700000ED00E090F83530DBB2022B03D0802385
:10118000436501207047052380F8353002681368F5
:1011900023F00103136000207047000000230F2B91
:1011A00000F2D180F0B482B039E0062200E00022E3
:1011B000B2403A430234644E46F82420634A14682D
:1011C000EA4302EA04064F6817F4803F01D045EA7B
:1011D00004065E4C2660646802EA04064F6817F451
:1011E000003F01D045EA0406584C6660A46802EA54
:1011F00004064F6817F4801F01D045EA0406534CDB
:10120000A660E46822404E6816F4001F01D045EA4B
:1012100004024E4CE26001330F2B00F29180012258
:101220009A400C6804EA0205AA42F4D14C68022CE8
:1012300001D0122C10D1DE08083650F826C003F079
:101240000704A7000F24BC402CEA040C0C69BC4026
:1012500044EA0C0440F8264004685F000326BE40C0
:10126000F64306EA040C4C6804F00304BC4044EA6C
:101270000C0404604C6804F1FF3CBCF1010F03D97D
:10128000112C01D0122C10D1846806EA040CCC6811
:10129000BC4044EA0C048460446824EA02024C68BE
:1012A000C4F300149C4014434460C26816408A682A
:1012B000BA403243C2604A6812F0805FABD000226D
:1012C0000192234A546C44F480445464526C02F4F6
:1012D00080420192019A9C08A61C1B4A52F8267073
:1012E00003F0030296000F22B24027EA0207194AD0
:1012F00090423FF45CAF02F58062904216D002F556
:101300008062904214D002F58062904212D002F5C1
:101310008062904210D002F5806290420ED002F5B9
:10132000806290423FF441AF072241E701223FE74C
:1013300002223DE703223BE7042239E7052237E793
:1013400002B0F0BC7047704700380140003C0140DB
:1013500000380240000002400369194201D1002018
:1013600070470120704712B909048161704781619B
:1013700070470000002800F09D8070B504464F4B78
:101380001B6803F00F038B4209D2CBB24B4A137098
:10139000136803F00F038B4201D0012070BD236856
:1013A00013F0020F17D013F0040F04D0444A9368CF
:1013B00043F4E0539360236813F0080F04D0404ACD
:1013C000936843F4604393603D4A936823F0F003CD
:1013D000A068034393600D46236813F0010F32D0D9
:1013E0006368012B21D09A1E012A25D9344A12683C
:1013F00012F0020F60D032498A6822F003021343D0
:101400008B60FFF735FE06462D4B9B6803F00C03FF
:101410006268B3EB820F16D0FFF72AFE801B41F201
:1014200088339842F0D90320B8E7254A126812F4AD
:10143000003FE0D10120B1E7214A126812F0007F9D
:10144000D9D10120AAE71D4B1B6803F00F03AB4263
:1014500009D9EAB2194B1A701B6803F00F03AB42AB
:1014600001D001209AE7236813F0040F06D0144A34
:10147000936823F4E053E1680B439360236813F00F
:10148000080F07D00E4A936823F46043216943EAAA
:10149000C103936000F07EFA094B9B68C3F303130A
:1014A000084AD35CD840084B18600020FFF796FD2F
:1014B000002073E70120704701206FE7003C0240E5
:1014C00000380240D4DE0008C0000020014B18683C
:1014D000704700BFC000002008B5FFF7F7FF044BBE
:1014E0009B68C3F38223034AD35CD84008BD00BF86
:1014F00000380240E4DE000808B5FFF7E7FF044BC0
:101500009B68C3F34233034AD35CD84008BD00BF95
:1015100000380240E4DE0008F0B583B004460368FA
:1015200013F0010F0CD0964AD2F88C3023F0C06330
:10153000816B0B43C2F88C30836B3BB3002600E019
:101540000026236813F0020F0BD08D4AD2F88C309E
:1015500023F0C053E16B0B43C2F88C30E36B03B94B
:101560000126236813F0040F14D0854AD2F88C307A
:1015700023F44013216B0B43C2F88C30236BB3F57B
:10158000801F05D0002B7BD0002504E00126D8E782
:101590000126F7E70025236813F0080F0ED0784ADC
:1015A000D2F88C3023F44003616B0B43C2F88C30CB
:1015B000636BB3F5800F65D003B90125236813F081
:1015C000200F61D1236813F0100F03D094F8582036
:1015D0006C4B1A60236813F0800F08D0684AD2F869
:1015E000943023F44003E16C0B43C2F89430236839
:1015F00013F0400F08D0624AD2F8943023F0806391
:10160000A16C0B43C2F89430236813F4807F0DD093
:101610005B4AD2F8943023F00063616D0B43C2F84B
:101620009430636DB3F1006F00F09580236813F47C
:10163000007F08D0524AD2F8943023F08053616C76
:101640000B43C2F89430236813F4806F0CD04C4ADB
:10165000D2F8943023F00053216D0B43C2F894303C
:10166000236DB3F1005F78D0002E76D12368B3F5F7
:10167000006F72D0002D40F02281002003B0F0BD39
:10168000012588E7012697E7002301933C4B1A6C5C
:1016900042F080521A641B6C03F080530193019B4B
:1016A000394A136843F480731360FFF7E1FC07467F
:1016B000354B1B6813F4807F06D1FFF7D9FCC01BA4
:1016C0000228F5D90320D9E72D4B1B6F13F4407383
:1016D00012D0226C02F440729A420DD0284B1A6F3D
:1016E00022F44072294901200860002008601A672E
:1016F0001B6F13F0010F12D1236C03F44072B2F58B
:10170000407F1DD01E4A936823F4F81393601C4950
:101710000B6F226CC2F30B0213430B6752E7FFF708
:10172000A7FC0746164B1B6F13F0020FE4D1FFF71F
:101730009FFCC01B41F288339842F3D903209DE7F8
:101740000F498A6822F4F81223F0704323F440739F
:1017500013438B60DBE7012568E70D4B00221A601D
:10176000FFF786FC0646064B1B6813F0006F11D08E
:10177000FFF77EFC801B0228F5D903207EE700BF1F
:1017800000380240E011474200700040400E4742DE
:1017900068004742236813F0010F01D0A26B22B109
:1017A00013F0020F15D0E36B9BB9774AD2F884008F
:1017B000D2F884106368A66843EA861300F44030C8
:1017C000034301F070610B43616943EA0173C2F89E
:1017D0008430236813F0040F03D0226BB2F5801F0E
:1017E00006D013F0080F20D0636BB3F5800F1CD127
:1017F000654AD2F88400D2F884106368A66843EA88
:10180000861300F440300343206943EA006301F08B
:10181000E0410B43C2F88430D2F88C3023F01F0330
:10182000A16A01390B43C2F88C30236813F4806F2E
:1018300003D0236DB3F1005F28D0236813F4006F49
:1018400011D06368A26843EA8213E2685208013A41
:1018500043EA0243226943EA0263626943EA02738C
:10186000494AC2F88430494B01221A60FFF700FC54
:101870000646454B1B6813F0006F7FF4FBAEFFF785
:10188000F7FB801B0228F4D90320F7E63E48D0F886
:101890008430C3F301435A1CD0F884606368A168A4
:1018A00043EA8113E1684908013943EA014343EA05
:1018B000426306F0E0421343C0F88430BDE7344B86
:1018C00000221A60FFF7D4FB05462F4B1B6813F06C
:1018D000005F06D0FFF7CCFB401B0228F5D90320A0
:1018E000CCE6236813F0040F01D0226B22B113F071
:1018F000080F1AD0636BC3B9234AD2F88810A369C2
:10190000E06943EA801301F440310B43616A43EA22
:101910000163C2F88830D2F88C3023F4F853E16ABE
:10192000013943EA0123C2F88C30236813F4807F25
:1019300003D0636DB3F1006F11D0154B01221A6013
:10194000FFF796FB0446104B1B6813F0005F18D19D
:10195000FFF78EFB001B0228F5D903208EE60A480C
:10196000D0F88810A369E26943EA8213226A520818
:10197000013A43EA024301F070621343C0F8883031
:10198000DBE700207AE600BF0038024068004742EB
:10199000700047422DE9F04B5C4B9B6803F00C0351
:1019A000082B07D00C2B5BD0042B00F0AD805848DF
:1019B000BDE8F08B554B5A6802F03F025B6813F4A8
:1019C000800F2AD0514B5B68C3F388131E46002753
:1019D0005C010025E41A65EB0705A90141EA946161
:1019E000A001001B61EB0501CB0043EA5073C4006A
:1019F000A01943EB07014B0243EAD05344022046AF
:101A000019460023FEF7D2FF404B5B68C3F3014346
:101A100001335B00B0FBF3F0CAE73C4B5B68C3F3F8
:101A200088131E4600275C010025E41A65EB0705B4
:101A3000A90141EA9461A001001B61EB0501CB0003
:101A400043EA5073C400A01943EB07018B0243EA39
:101A500090538402204619460023FEF7A7FFD3E7E0
:101A60002A4B5A6802F03F025B6813F4800F28D0BB
:101A7000264B5B68C3F388131E4600275C010025D4
:101A8000E41A65EB0705A90141EA9461A001001B76
:101A900061EB0501CB0043EA5073C400A01943EB8E
:101AA00007014B0243EAD053440220461946002363
:101AB000FEF77CFF154B5B68C3F30273B0FBF3F0DA
:101AC00076E7124B5B68C3F388131E4600275C0160
:101AD0000025E41A65EB0705A90141EA9461A0011C
:101AE000001B61EB0501CB0043EA5073C400A01951
:101AF00043EB07018B0243EA9053840220461946C8
:101B00000023FEF753FFD5E7024851E700380240B3
:101B10000024F40000127A0070B582B00446036815
:101B200013F0010F41D0A64B9B6803F00C03042B6C
:101B300032D0A34B9B6803F00C03082B27D0A04B9B
:101B40009B6803F00C030C2B59D06368B3F5803FFE
:101B50005BD0B3F5A02F5ED0994B1A6822F4803287
:101B60001A601A6822F480221A606368002B5CD025
:101B7000FFF77EFA0546924B1B6813F4003F14D121
:101B8000FFF776FA401B6428F5D903209DE18C4BC2
:101B90005B6813F4800FD2D0894B1B6813F4003FAD
:101BA00003D06368002B00F08D81236813F0020FCF
:101BB00067D0834B9B6813F00C0F4AD0804B9B6817
:101BC00003F00C03082B3FD07D4B9B6803F00C0304
:101BD0000C2B48D0E368002B74D07A4B01221A609A
:101BE000FFF746FA0546764B1B6813F0020F60D1EB
:101BF000FFF73EFA401B0228F5D9032065E1704B40
:101C00005B6813F4800FA0D0C6E76D4A136843F4F5
:101C100080331360A9E76A4B1A6842F480221A6085
:101C20001A6842F480321A609FE7FFF721FA0546EE
:101C3000634B1B6813F4003FB7D0FFF719FA401B42
:101C40006428F5D9032040E15D4B5B6813F4800FF5
:101C5000BAD15B4B1B6813F0020F0AD0E368012B6B
:101C600007D0012031E1564B5B6813F4800FB1D1EE
:101C7000EFE7534A136823F0F803216943EAC103ED
:101C80001360236813F0080F40D0636963B34E4BB1
:101C900001221A60FFF7ECF90546494B5B6F13F020
:101CA000020F33D1FFF7E4F9401B0228F5D90320D6
:101CB0000BE1434A136823F0F803216943EAC103A7
:101CC0001360DEE73F4B00221A60FFF7D1F90546AB
:101CD0003B4B1B6813F0020FD3D0FFF7C9F9401B31
:101CE0000228F5D90320F0E0374B00221A60FFF7F5
:101CF000BFF90546324B5B6F13F0020F06D0FFF7BA
:101D0000B7F9401B0228F5D90320DEE0236813F061
:101D1000040F79D02A4B1B6C13F0805F33D1002362
:101D20000193274B1A6C42F080521A641B6C03F02B
:101D300080530193019B0125244B1B6813F4807F82
:101D400023D0A368012B34D0052B41D01C4B1A6F34
:101D500022F001021A671A6F22F004021A67A368C0
:101D6000002B3FD0FFF784F90646154B1B6F13F08D
:101D7000020F48D1FFF77CF9801B41F2883398426B
:101D8000F3D90320A1E00025D6E7104A136843F4F5
:101D900080731360FFF76CF906460C4B1B6813F455
:101DA000807FCED1FFF764F9801B0228F5D903208C
:101DB0008BE0034A136F43F001031367CFE700BFC3
:101DC0000038024000004742800E47420070004049
:101DD000404B1A6F42F004021A671A6F42F0010278
:101DE0001A67BCE7FFF744F906463A4B1B6F13F03E
:101DF000020F08D0FFF73CF9801B41F2883398426C
:101E0000F3D9032061E0E5B9A369002B5CD0314A26
:101E1000926802F00C02082A59D0022B17D02E4BE0
:101E200000221A60FFF724F904462A4B1B6813F0BE
:101E3000007F45D0FFF71CF9001B0228F5D90320CD
:101E400043E0244A136C23F080531364DCE7224BF5
:101E500000221A60FFF70CF905461E4B1B6813F0B1
:101E6000007F06D0FFF704F9401B0228F5D90320B4
:101E70002BE0E369226A1343626A43EA8213A26A8F
:101E80005208013A43EA0243E26A43EA0263226BE0
:101E900043EA02730F4A53600F4B01221A60FFF7A7
:101EA000E7F804460B4B1B6813F0007F06D1FFF7E1
:101EB000DFF8001B0228F5D9032006E0002004E02B
:101EC000002002E0012000E0002002B070BD0120EF
:101ED000FBE700BF003802406000474270B582B0A7
:101EE000044600230193006801F032FC054610B15E
:101EF000284602B070BD206801F03DFC064610B3D4
:101F00000023A3642E46DEB9019B5A1C01924FF6B2
:101F1000FF72934244D00021206801F043FC002866
:101F200041D10021206801F055FC064600283DD132
:101F30000021206801F04BFAC00FE4D00646E2E72A
:101F400000236364D4E70123A3640546EDB9019B34
:101F50005A1C01924FF6FF7293422AD0002120684A
:101F600001F020FC05460028C2D14FF080412068D6
:101F700001F030FC05460028BAD10021206801F0AC
:101F800026FAC30FE2D01D46E0E710F0804F03D1E0
:101F9000002363643546ABE7012363643546A7E756
:101FA0004FF08075A4E74FF08055A1E74FF08055C2
:101FB0009EE74FF080759BE770B581B10D460446F2
:101FC000016D0904006801F060FC064608B1304666
:101FD00070BD0021206801F0FAF92860F7E74FF0A2
:101FE0000066F4E72DE9F04387B004460D46164637
:101FF0001F46FFF73DF86DB1804694F83430DBB2F0
:10200000012B0DD0A36B43F00053A363012007B055
:10201000BDE8F083A36B43F00063A3630120F6E700
:102020000023A363F319E26D93421BD8032384F8C2
:10203000343023680022DA62636C012B00D0760210
:102040004FF40071206801F0D9FA034680B122688C
:1020500040F2FF519163A06B1843A063012084F804
:102060003400D4E7A36B43F00073A3630120CEE7F1
:102070004FF0FF3300937B020193902302930223DE
:10208000039300230493012305936946206801F01C
:10209000A3FA012F15D9022323633146206801F0EA
:1020A000DDFA8146B9F1000F25D0236840F2FF52D6
:1020B0009A63A36B43EA0903A363012084F8340005
:1020C000A5E7012323633146206801F0AFFA81467A
:1020D000E8E7206801F056F945F826000136072E9A
:1020E000F7D920350E9B8BB1FEF7C2FFA0EB08009D
:1020F0000E9B98420AD22068436B13F4957F12D14D
:10210000436B13F4004FEDD04E46E8E7236840F2EE
:10211000FF529A63A36B43F00043A363012384F847
:102120003430032073E7436B13F4807F07D0012F13
:1021300005D9636C032B02D001F0D8FA50BB236899
:102140005A6B12F0080F30D15A6B12F0020F37D1D0
:102150005A6B12F0200F3ED12068436B13F4001F1E
:1021600044D001F00FF945F8040B0E9B33B1FEF794
:102170007FFFA0EB08000E9B9842EDD3236840F24E
:10218000FF529A63A36B43F00043A363012084F8DA
:1021900034003CE7236840F2FF519963A36B03438B
:1021A000A363012084F8340031E740F2FF529A63C0
:1021B000A36B43F00803A363012084F8340026E7EF
:1021C00040F2FF529A63A36B43F00203A363012022
:1021D00084F834001BE740F2FF529A63A36B43F08C
:1021E0002003A363012084F8340010E740F2FF537A
:1021F0008363012384F83430002008E72DE9F0439D
:1022000087B004460D4616461F46FEF731FF6DB1F6
:10221000804694F83430DBB2012B0DD0A36B43F031
:102220000053A363012007B0BDE8F083A36B43F024
:102230000063A3630120F6E70023A363F319E26DB3
:10224000934228D8032384F8343023680022DA62CA
:10225000636C012B00D076024FF40071206801F00E
:10226000CDF90346E8B9012F26D92023236331464F
:10227000206801F023FA8146B9F1000F24D02368C9
:1022800040F2FF529A63A36B43EA0903A363012060
:1022900084F83400C7E7A36B43F00073A363012005
:1022A000C1E7226840F2FF519163A06B1843A0631D
:1022B000012084F83400B6E71023236331462068F8
:1022C00001F0E4F98146D7E74FF0FF3300937B023A
:1022D0000193902302930023039304930123059316
:1022E0006946206801F078F911E005EB8601206865
:1022F00001F04BF80136072EF7D920350E9B8BB134
:10230000FEF7B6FEA0EB08000E9B98420AD22068AA
:10231000436B13F48D7F12D1436B13F4804FEDD0D8
:102320004E46E8E7236840F2FF529A63A36B43EA04
:102330000903A363012384F83430032073E7436B5C
:1023400013F4807F07D0012F05D9636C032B02D0D3
:1023500001F0CCF9B8B923685A6B12F0080F1DD1FF
:102360005A6B12F0020F24D15A6B12F0100F2BD0BF
:1023700040F2FF529A63A36B43F01003A363012062
:1023800084F834004FE7236840F2FF519963A36B50
:102390000343A363012084F8340044E740F2FF5272
:1023A0009A63A36B43F00803A363012084F834000D
:1023B00039E740F2FF529A63A36B43F00203A36331
:1023C000012084F834002EE740F2FF529A63012383
:1023D00084F83430002026E730B4436E9A0F0A7038
:1023E000C3F383624A70C3F301638B7090F8663065
:1023F000CB7090F865300B7190F864304B7190F8A9
:102400006B301B01CB80B0F86A30CC88C3F3031269
:102410002243CA8003F00F030B7290F86930DA0987
:102420004A72C3F380128A72C3F34012CA72C3F3B2
:1024300000120A7300224A73426C002A40F0928014
:102440009B0203F440630B61836E0A699B0003F4F3
:102450007F7313430B61C36E0A6942EA93720A6188
:10246000C3F3C2620A75C3F302634B75C26EC2F353
:102470000743C2F342548C75C2F38242CA755B00B3
:1024800003F006030B76C26EC2F307230C7EC2F381
:10249000C03222430A760A69013242650C7E023458
:1024A00002FA04F444650A7AD5B20122AA40826590
:1024B000520A02FB04F2C2654FF400720266C3F3D3
:1024C00080124A765B0003F07E038B76C36E8A7EB1
:1024D000C3F3C01422438A7603F07F03CB76036FE5
:1024E0001A0EDC0F0C77C3F341744C77C3F382638D
:1024F0008B77930003F00C03CB77036FCA7FC3F392
:1025000081542243CA77C3F3405281F8202000222D
:1025100081F82120C3F3004381F82230036FC3F315
:10252000C03481F82340C3F3803481F82440C3F3DE
:10253000403481F82540C3F3003481F82640C3F3CA
:10254000812481F82740C3F3012381F82830036FE9
:10255000C3F3460381F82930012381F82A3010465D
:1025600030BC7047012A0CD0036840F2FF529A63D6
:10257000836B43F080538363012280F8342010463C
:10258000EEE7836E1B0403F47C130B6190F86F205D
:102590000B6943EA02230B610A6990F86E3013431A
:1025A0000B6190F86D300A69013292024265C26592
:1025B0004FF400728265026681E770B590B0044600
:1025C0000123ADF81230006800F0E8FE00286AD060
:1025D000636C032B43D1636C032B5BD1636C032BC4
:1025E0001DD0BDF8121021650904206801F020F902
:1025F0000546002859D10021206800F0E8FE6066F9
:102600000421206800F0E3FEA0660821206800F0A5
:10261000DEFEE0660C21206800F0D9FE2067042170
:10262000206800F0D4FE000DE06405A92046FFF705
:10263000D3FE226D12040023206801F071F80546D4
:1026400098BB234653F8106B93E807008DE807000A
:10265000043494E80E00304600F078FE25E020684F
:1026600001F0D1F8054600BB0021206800F0AFFE64
:1026700060670421206800F0AAFEA0670821206896
:1026800000F0A5FEE0670C21206800F0A0FEC4F871
:102690008000A0E70DF11201206801F0DEF8054688
:1026A00000289BD001E04FF08065284610B070BD37
:1026B00070B58AB0054600240494059406940794E6
:1026C0000894762309930AAB13E907008DE8070005
:1026D00004AB0ECB286800F039FE124E3460286837
:1026E00000F058FE012333600220FEF7C7FC2846A5
:1026F000FFF7F4FB40B10246012085F83400AB6BD4
:102700001343AB630AB070BD2846FFF756FF02467D
:1027100030B1012085F83400AB6B1343AB63F1E7B4
:102720000020EFE7A0802542A8B110B5044690F83C
:10273000343063B1032384F834302046FFF7B8FF08
:102740000020A0632063012384F8343010BD037798
:1027500004F026FCEEE701207047436C0B60836CAD
:102760004B60C36C8B60036DCB60436D0B61836DFD
:102770004B61C36D8B61036ECB610020704710B558
:1027800082B0044602A9002341F8043DFFF714FC7F
:1027900018B10346A06B1843A0630198C0F343200F
:1027A00002B010BDF8B505460F4616461C463BE084
:1027B0002CB1FEF75DFC069BC01AA04234D32A68F8
:1027C000536823F0E00353606B68B3F5827F0BD04E
:1027D000AB6AB3F5005F14D0012385F851300023B4
:1027E00085F85030032027E0AB68B3F5004F02D0E6
:1027F000B3F5806FECD12A68136823F040031360AF
:10280000E6E72A68136823F400531B041B0C1360CB
:102810002A68136843F400531360DDE70123B342D1
:1028200009D0B4F1FF3FC3D12B689B6837EA03039B
:10283000F4D00023F3E70020F8BD10B582B00446C1
:1028400000920B4600228021FFF7ACFF034610B92F
:10285000184602B010BD636D43F020036365032387
:10286000F6E700283BD010B504460023836290F8B9
:102870005130002B2ED0022384F851302268136887
:1028800023F0400313606368A2681343E2681343B4
:102890002269134362691343A26902F4007213436D
:1028A000E2691343226A1343A16A22680B4313604F
:1028B000638B03F00403616A22680B435360226850
:1028C000D36923F40063D36100206065012384F899
:1028D000513010BD80F8503004F0CAFBCBE7012026
:1028E00070472DE9F04184B01E4690F85030012B1E
:1028F00000F0C88004460D469046012380F8503011
:10290000FEF7B6FB074694F85130DBB2012B0AD034
:102910000223012284F85120002284F85020184616
:1029200004B0BDE8F081002D00F0A480B8F1000FE4
:1029300000F0A280032384F85130002363652563EF
:10294000A4F83480A4F83680A363A387E387636484
:102950002364A368B3F5004F1BD023681A6812F0F4
:10296000400F03D11A6842F040021A60E368B3F5E1
:10297000006F14D063681BB1E38E9BB2012B3ED174
:10298000236815F8012B1A73E38E013B9BB2E38693
:1029900035E02268136843F480431360DDE7636821
:1029A0001BB1E38E9BB2012B0DD1236835F8022BAE
:1029B000DA60E38E013B9BB2E38604E0002E5DD03B
:1029C000B6F1FF3F0FD1E38E9BB27BB323689A68C9
:1029D00012F0020FF2D035F8022BDA60E38E013BE1
:1029E0009BB2E386EFE7FEF743FBC01BB042EAD39E
:1029F00003238EE7002E43D0B6F1FF3F0FD1E38EC5
:102A00009BB29BB123689A6812F0020FF2D015F8BE
:102A1000012B1A73E38E013B9BB2E386EFE7FEF7CF
:102A200027FBC01BB042EAD3032372E7009733466B
:102A3000012202212046FFF7B5FE08B1032368E713
:102A40003A4631462046FFF7F8FE034618B12023E8
:102A5000636501235DE7A26832B903922268D168F9
:102A6000039192680392039A626D002A3FF451AF7A
:102A700001234EE701234CE701234AE7032348E7FC
:102A8000032346E702234AE70268D36823F49073DE
:102A9000D3600268536923F001035361202380F857
:102AA0003A30704790F83930DBB2212B2AD1836855
:102AB000B3F5805F16D0036A5A1C02621A78036865
:102AC0005A60C38C013B9BB2C384EBB90268D368E4
:102AD00023F08003D3600268D36843F04003D360DF
:102AE00000207047036A1B880268C3F30803536021
:102AF00003691BB9036A02330362E2E7036A013325
:102B00000362DEE702207047002070472DE9F8439A
:102B1000044601680A6922F44052C36813430B61FA
:102B20000168CA6822F4164222F00C028368006928
:102B3000034360690343E06903431343CB602168A7
:102B40004A6922F44072A36913434B61E369B3F508
:102B5000004F60D02368B84A934200F0148102F518
:102B60008062934200F00F81FEF7B6FC00EB80001C
:102B700000EB80006568AD00B0FBF5F5AF4FA7FB3B
:102B800005356D092E01FEF7A7FC00EB800000EB78
:102B900080006568AD00B0FBF5F9FEF79DFC00EB29
:102BA000800000EB80006568AD00B0FBF5F5A7FB89
:102BB00005356D094FF0640808FB15952D01323578
:102BC000A7FB05356D0905F0F0053544FEF784FCDB
:102BD00000EB800000EB80006668B600B0FBF6F604
:102BE000FEF77AFC00EB800000EB800063689B003E
:102BF000B0FBF3F0A7FB0030400908FB10684FEA78
:102C0000081808F13208A7FB0837C7F343172368F1
:102C10002F449F600DE12368874A93425BD002F501
:102C20008062934257D0FEF757FC00EB800000EB28
:102C3000800065686D00B0FBF5F5804FA7FB05359A
:102C40006D092E01FEF748FC00EB800000EB8000D0
:102C500065686D00B0FBF5F9FEF73EFC00EB800007
:102C600000EB800065686D00B0FBF5F5A7FB05354E
:102C70006D094FF0640808FB1595ED003235A7FB90
:102C800005356D096D0005F4F8753544FEF724FC33
:102C900000EB800000EB800066687600B0FBF6F683
:102CA000FEF71AFC00EB800000EB800063685B001D
:102CB000B0FBF3F3A7FB03235B0908FB13684FEAA0
:102CC000C80808F13208A7FB0837C7F34217236882
:102CD0002F449F60ADE0FEF70FFC00EB800000EB9F
:102CE000800065686D00B0FBF5F5544FA7FB053516
:102CF0006D092E01FEF700FC00EB800000EB800068
:102D000065686D00B0FBF5F9FEF7F6FB00EB80009F
:102D100000EB800065686D00B0FBF5F5A7FB05359D
:102D20006D094FF0640808FB1595ED003235A7FBDF
:102D300005356D096D0005F4F8753544FEF7DCFBCB
:102D400000EB800000EB800066687600B0FBF6F6D2
:102D5000FEF7D2FB00EB800000EB800063685B00B5
:102D6000B0FBF3F3A7FB03235B0908FB13684FEAEF
:102D7000C80808F13208A7FB0837C7F342172368D1
:102D80002F449F6055E0FEF7B7FB00EB800000EB9F
:102D900080006568AD00B0FBF5F5284FA7FB053551
:102DA0006D092E01FEF7A8FB00EB800000EB800010
:102DB0006568AD00B0FBF5F9FEF79EFB00EB800007
:102DC00000EB80006568AD00B0FBF5F5A7FB0535AD
:102DD0006D094FF0640808FB15952D013235A7FBEE
:102DE00005356D0905F0F0053544FEF785FB00EB70
:102DF000800000EB80006668B600B0FBF6F6FEF7D8
:102E00007BFB00EB800000EB800063689B00B0FB65
:102E1000F3F0A7FB0030400908FB10684FEA0818E0
:102E200008F13208A7FB0837C7F3431723682F447C
:102E30009F60BDE8F88300BF001001401F85EB5183
:102E40002DE9F04105460F4616469846069C2B682C
:102E50001B6837EA03030CBF01230023B3421DD1D3
:102E6000B4F1FF3FF3D02CB1FEF702F9A0EB08005C
:102E7000A042ECD92A68D36823F4D073D3602A68BF
:102E8000536923F001035361202385F8393085F815
:102E90003A30002385F83830032000E00020BDE8F8
:102EA000F08158B310B5044690F839300BB32423A1
:102EB00084F839302268D36823F40053D360204665
:102EC000FFF724FE2268136923F4904313612268FC
:102ED000536923F02A0353612268D36843F40053F3
:102EE000D3600020E063202384F8393084F83A303E
:102EF00010BD80F8383004F0F3F8D8E701207047AF
:102F00002DE9F04182B01E4690F83930DBB2202B1B
:102F100055D104460D469046002955D0002A55D07B
:102F200090F83830012B53D0012380F8383000233B
:102F3000C363212380F83930FEF79AF80746A4F8D6
:102F40002480A4F8268010E000963B4600228021D1
:102F50002046FFF775FF00283CD12B882268C3F379
:102F6000080353602369C3B90235E38C9BB2B3B144
:102F7000E38C013B9BB2E384A368B3F5805FE3D0AD
:102F800000963B46002280212046FFF759FF18BBE0
:102F90002A7823685A600135E7E70135E5E70096AE
:102FA0003B46002240212046FFF74AFF0346A8B9CE
:102FB000202284F83920002284F8382000E00223FF
:102FC000184602B0BDE8F0810123F9E70123F7E7D5
:102FD0000223F5E70323F3E70323F1E70323EFE7F6
:102FE00090F83A30DBB2202B1BD1E1B1EAB190F876
:102FF0003830012B1BD081628285C2850023C363D8
:10300000222280F83A2080F8383001684A6942F07C
:1030100001024A610168CA6842F49072CA601846A7
:10302000704702207047012070470120704702203E
:103030007047704708B50168CB6823F04003CB6048
:10304000202380F83930FFF7F4FF002008BD08B5D1
:1030500090F83A30DBB2222B40D18368B3F5805F21
:103060000ED0036903BB03685A68836A591C8162E6
:103070001A70C38D013B9BB2C385F3B100202EE0D3
:10308000826A036943B903685B68C3F3080313806A
:10309000836A02338362ECE703685B68DBB2138008
:1030A000836A01338362E4E703685B68826A511CC8
:1030B000816203F07F031370DBE70268D36823F4B7
:1030C0009073D3600268536923F001035361202396
:1030D00080F83A3003F08EFA002000E0022008BDAC
:1030E0007047000010B5044602681368D168526941
:1030F00013F00F0005D113F0200F02D011F0200FB4
:1031000053D1002867D012F0010202D111F4907F50
:1031100061D013F0010F06D011F4807F03D0E06B73
:1031200040F00100E06313F0040F04D01AB1E06B2B
:1031300040F00200E06313F0020F04D01AB1E06B1C
:1031400040F00400E06313F0080F04D01AB1E26B02
:1031500042F00802E263E26B002A48D013F0200F2D
:1031600002D011F0200F24D123685B6903F04003E3
:10317000E26B12F0080F00D13BB32046FFF784FC4E
:1031800023685A6912F0400F1BD05A6922F040029E
:103190005A61636B8BB11A4A1A65606BFDF7EAFFDF
:1031A00028B3606B036D984721E02046FFF74FFF7F
:1031B0001DE02046FFF74BFFD6E72046FFF790FFC4
:1031C00015E02046FFF78CFF11E02046FFF788FF4F
:1031D0000023E3630BE013F0800F02D011F0800FA7
:1031E00006D113F0400F02D011F0400F04D110BDF2
:1031F0002046FFF757FCFAE72046FFF71BFFF6E7EC
:103200000532000808B5806B0023C385C384FFF72F
:1032100067FF08BD0C4B1B680C4AA2FB03235A0A2C
:1032200041F2883303FB02F35A1E4BB1416B134644
:1032300011F0800FF8D040F2FF53836300207047F5
:103240004FF00040704700BFC0000020D34D621017
:10325000144B1B68144AA2FB03235A0A41F2883319
:1032600003FB02F35A1ECBB1416B134611F0450F1D
:10327000F8D0436B13F0040F08D1436B13F0010F28
:1032800008D140F2FF538363002070470423836317
:103290001846704701238363184670474FF000407B
:1032A000704700BFC0000020D34D6210104B1B6858
:1032B000104AA2FB03235A0A41F2883303FB02F3AC
:1032C0005A1E8BB1416B134611F0450FF8D0436B7A
:1032D00013F0040F04D140F2FF53836300207047C2
:1032E00004238363184670474FF00040704700BFC7
:1032F000C0000020D34D6210124B1B68124AA2FB83
:1033000003235A0A41F2883303FB02F35A1EA3B186
:10331000416B134611F0450FF8D0436B13F0040FC7
:1033200007D1436B13F0400F0AD040238363002082
:10333000704740238363042070474FF0004070477C
:1033400000207047C0000020D34D621084B010B43C
:1033500002AC84E80E000B46039A1343049A13430D
:10336000059A1343069A1343079A1343426822F4BB
:10337000FD4222F07F021343436000205DF8044BBE
:1033800004B07047D0F8800070470B68C0F88030F8
:10339000002070470323036000207047006800F09E
:1033A000030070470B6883604B688A681343CA68E0
:1033B00013430A691343C26822F47F6222F00F02AA
:1033C0001343C360002070470069C0B2704782B0E9
:1033D00000230193143001440191019B186802B04D
:1033E0007047000038B5514B1B68514CA4FB034398
:1033F0005B0A02FB03F2531E002A5ED0446B1A469E
:1034000014F0450FF7D0436B13F0040F07D1436B53
:1034100013F0010F07D00123836318464FE0042304
:10342000836318464BE00D460446FFF7CDFFA842E4
:1034300001D0012043E040F2FF53A3630021204666
:10344000FFF7C5FF3B4B0340D3B300283ADB10F036
:10345000804F3AD110F0005F39D110F0805F38D141
:1034600010F0006F38D110F0806F38D110F0807FED
:1034700038D110F4000F38D110F4800F38D110F487
:10348000001F38D110F4801F38D110F4802F38D1AC
:1034900010F4003F38D110F4803F38D110F4004FC1
:1034A00038D110F4804F38D110F4005F38D110F0CB
:1034B000080F38D04FF4000001E04FF0004038BD55
:1034C0000020FCE74FF00070F9E74020F7E780208C
:1034D000F5E74FF48070F2E74FF40070EFE74FF438
:1034E0008060ECE74FF40060E9E74FF48050E6E7D6
:1034F0004FF40050E3E74FF48040E0E74FF4004022
:10350000DDE74FF40030DAE74FF48020D7E74FF4DF
:103510000020D4E74FF48010D1E74FF40010CEE73D
:103520004FF48000CBE74FF48030C8E7C0000020A4
:10353000D34D621008E0FFFD70B5254B1B68254C8C
:10354000A4FB03435C0A41F2883303FB04F35C1ED3
:10355000A3B3456B234615F0450FF8D0436B13F02A
:10356000040F07D1436B13F0010F07D001238363CE
:10357000184625E004238363184621E016460D46CD
:103580000446FFF721FFA84201D0012018E040F2D5
:10359000FF53A36300212046FFF719FF10F4604F8B
:1035A00008D010F4804F0CD110F4004F0CD04FF421
:1035B000805005E0000C3080002001E04FF000401A
:1035C00070BD4FF40050FBE74FF48030F8E700BFC8
:1035D000C0000020D34D62100B6843624B688362C9
:1035E0008B68CA6813430A6913434A691343C26A62
:1035F00022F0F7021343C3620020704730B587B052
:103600000546019110240294402303930023049360
:103610004FF48063059301A9FFF7C4FE41F288329D
:1036200021462846FFF7DEFE07B030BD30B587B033
:10363000054601911124029440230393002304932F
:103640004FF48063059301A9FFF7ACFE41F2883285
:1036500021462846FFF7C6FE07B030BD30B587B01B
:1036600005460191122402944023039300230493FE
:103670004FF48063059301A9FFF794FE41F288326D
:1036800021462846FFF7AEFE07B030BD30B587B003
:1036900005460191182402944023039300230493C8
:1036A0004FF48063059301A9FFF77CFE41F2883255
:1036B00021462846FFF796FE07B030BD30B587B0EB
:1036C0000546019119240294402303930023049397
:1036D0004FF48063059301A9FFF764FE41F288323D
:1036E00021462846FFF77EFE07B030BD30B587B0D3
:1036F0000546002301930C24029440220392049374
:103700004FF48063059301A9FFF74CFE034A21465D
:103710002846FFF767FE07B030BD00BF00E1F505A2
:1037200030B587B0054601920724029440230393E5
:10373000002304934FF48063059301A9FFF732FE41
:1037400041F2883221462846FFF74CFE07B030BDD3
:1037500010B586B0044600230193029303930493AB
:103760004FF48063059301A9FFF71CFE2046FFF785
:1037700051FD06B010BD10B586B004464FF4D573A8
:1037800001930823029340230393002304934FF4EF
:103790008063059301A9FFF705FE2046FFF7ACFD06
:1037A00006B010BD30B587B00546019137240294AC
:1037B00040230393002304934FF48063059301A9EE
:1037C000FFF7F0FD41F2883221462846FFF70AFE56
:1037D00007B030BD10B586B0044641F0004141F459
:1037E0008011019129230293402303930023049322
:1037F0004FF48063059301A9FFF7D4FD2046FFF73E
:1038000055FD06B010BD10B586B0044600230193E7
:1038100002220292C022039204934FF48063059324
:1038200001A9FFF7BFFD2046FFF712FD06B010BD4E
:1038300010B586B00446019109230293C023039377
:10384000002304934FF48063059301A9FFF7AAFDB9
:103850002046FFF7FDFC06B010BD70B586B00546EA
:103860000E46002301930324029440220392049302
:103870004FF48063059301A9FFF794FD324621467A
:103880002846FFF759FE06B070BD30B587B0054633
:1038900001910D24029440230393002304934FF4D9
:1038A0008063059301A9FFF77DFD41F2883221462F
:1038B0002846FFF797FD07B030BD000008B5044B60
:1038C00003EB8002526852680344187A904708BD9F
:1038D000DC02002008B5084B1B5C53B9064B0122E3
:1038E0001A5403EB8002526812681844007A904719
:1038F00008BD0020FCE700BFDC02002038B5044C06
:1039000004EB80056D68AD680444207AA84738BD93
:10391000DC02002038B5044C04EB80056D68ED68CE
:103920000444207AA84738BDDC02002010B5044BBF
:1039300003EB8004646824690344187AA04710BD2F
:10394000DC0200204278007840EA02207047C2780A
:10395000837843EA0222437843EA0223007840EA6C
:10396000032070470170090A417070470170C1F36C
:1039700007234370C1F307438370090EC17070477A
:1039800013462AB10A78027001300131013BF9D1A6
:10399000704701700130013AFBD1704730B4451CCB
:1039A000037808781B1A013A04D04C1C284621469B
:1039B000002BF4D0184630BC704700E0013003788B
:1039C0000BB18B42FAD118467047000030B4002585
:1039D0002B4601E001250133012B15D81A01174CA4
:1039E000A258002AF6D00468A242F4D1134A02EB8E
:1039F0000312546882689442EDD1104A02EB03121C
:103A0000946842699442E6D1022B0AD0A1B90B4ACC
:103A100002EB03139B89B3F5807F07D0002030BCF5
:103A200070472DB9022905D10020F8E71020F6E7EC
:103A30000020F4E71220F2E71020F0E7B4020020A3
:103A4000002000E00130012804D80301034AD358C4
:103A5000002BF7D1023818BF01207047B4020020B4
:103A600070B4002300E00133012B13D81A01244C59
:103A7000A45802689442F6D1214A02EB031254681A
:103A800082689442EFD11E4A02EB031294684269A5
:103A90009442E8D1022B29D021B1194A02EB03123A
:103AA000928952BB21BB164A02EB03129189013164
:103AB00089B2134A02EB03129181581C70BC704703
:103AC0000133012B04D81A010D4CA258002AF7D15A
:103AD000022B10D006680A4D1C012A192E51846849
:103AE00054604069906000209081D5E70023E8E7AA
:103AF0004FF48071DDE70020E0E70020DEE700BF43
:103B0000B40200200138012815D80D4B03EB001337
:103B10009B89B3F5807F03D01BB1013B9BB200E0D2
:103B20000023074A02EB0012938133B903010020FE
:103B3000034AD0507047022070470020704700BFF2
:103B4000B4020020002303E05DF8044B704701330A
:103B5000012B11D81A0109498A588242F7D110B4B1
:103B60001A0100248C500133012BEDD81A010349AE
:103B70008A588242F7D1F3E7704700BFB4020020B1
:103B800002394369023B8B4204D94389806A01FBB5
:103B900003007047002070470268C36A0433490A73
:103BA0005289B1FBF2F1186830B1814202D3091A8F
:103BB0000833F8E758680844704770B506460D4664
:103BC00001F11A00FFF7BEFE3378032B00D070BD61
:103BD000044605F11400FFF7B5FE44EA0040F6E79D
:103BE00070B506460C46154691B204F11A00FFF76F
:103BF000B9FE3378032B00D070BD290C04F11400FA
:103C0000FFF7B0FEF8E700234B72C36973B370B5DA
:103C10000022134605E0092C0ED08D186B7201327C
:103C200023460A2B0DD8056A5C1CEB5C202BF7D0D1
:103C3000052BF0D1E523EEE78D182E266E720132AA
:103C4000EBE70D4604460A4400235372036ADB7A0D
:103C50000B72006A1C30FFF77AFE2860206A16306B
:103C6000FFF775FEE880000CA88070BD704700006B
:103C70002DE9F84F82468B460F6800F124090B228C
:103C800020214846FFF785FE002633464FF00808FE
:103C90002CE001357B5D2F2BFBD05C2BF9D03D4414
:103CA000CBF80050002E43D09AF82430E52B35D0C5
:103CB000202C37D804238AF82F30002028E008264B
:103CC0004FF00B0811E014F0800F23D12146194862
:103CD000FFF773FE50BBA4F16103DBB2192B01D8CF
:103CE000203CE4B209F8064001362B465D1CFC5C22
:103CF000202CD4D92F2CCDD05C2CCBD02E2C01D085
:103D0000B045E0D8B8F10B0F0ED02E2CD7D006203E
:103D1000BDE8F88F803C084B1C5DD7E705238AF887
:103D20002430C5E70023C6E70620F1E70620EFE7C9
:103D30000620EDE7F8DE000800B60008016809B1CA
:103D40000A4603E04FF0FF3308E001321378202BDE
:103D500001D93A2BF9D13A2B02D0002318467047EB
:103D600010B44C1C0B78303B092B08D8A24209D167
:103D70005BB90132026018465DF8044B70474FF0A2
:103D8000FF33F8E74FF0FF33F5E74FF0FF33F2E78B
:103D90000160002343608360704738B50D4640B131
:103DA000044603682BB11A781AB1D98882889142E7
:103DB00003D000232B60092038BD5878FFF77EFD23
:103DC00010F0010FF5D123682B600020F4E7F8B55F
:103DD000C3780BB90020F8BD0446C56A00F130076E
:103DE00001232A4639464078FFF794FDA8B90023FD
:103DF000E370236AEB1AA269934210D2A678012ECF
:103E000009D9A3691D4401232A4639466078FFF782
:103E100081FD013EF3E70020DDE70120DBE7002024
:103E2000D9E770B5C36A8B4212D004460D46FFF73E
:103E3000CEFF064668B901232A4604F130016078B6
:103E4000FFF75CFD10B101264FF0FF35E56200E0A1
:103E50000026304670BD000010B504460023C37034
:103E60004FF0FF33C362FFF7DCFF18BB04F22E20D4
:103E7000FFF768FD4AF6552398421DD194F830307B
:103E8000E92B05D0236B03F0FF130F4A934215D1A2
:103E900004F16600FFF75BFD20F07F400B4B98427A
:103EA0000ED004F18200FFF752FD094B984209D170
:103EB000002002E0042000E0032010BD0220FCE707
:103EC0000020FAE70220F8E7EB009000464154009A
:103ED000464154332DE9F04784B00F46164600237F
:103EE0000B60FFF72BFF051EC0F24581B74B03EBBC
:103EF00085031C6A002C00F042813C6006F0FE063F
:103F0000237873B16078FFF7D9FC10F0010F08D166
:103F1000002E00F0368110F0040F40F034810020B4
:103F20002AE100232370E8B26070FFF7D3FC10F0A1
:103F3000010F40F02A811EB110F0040F40F02781DC
:103F400000212046FFF788FF022800F0B6800026F7
:103F5000042800F01E81012800F21D8104F13B00BD
:103F6000FFF7F0FCB0F5007F40F0178104F1460048
:103F7000FFF7E8FC074620B904F15400FFF7E7FC1F
:103F80000746A76194F84020A270531EDBB2012BB4
:103F900000F2058107FB02F594F83D80A4F80A8041
:103FA000B8F1000F00F0FD8008F1FF3318EA030FAD
:103FB00040F0F98004F14100FFF7C4FC8246208103
:103FC00010F00F0F40F0F18004F14300FFF7BAFC4E
:103FD000814620B904F15000FFF7B9FC814604F195
:103FE0003E00FFF7AFFC0146002800F0E0804219D8
:103FF00002EB1A129145C0F0DC80A9EB0203B3FB7F
:10400000F8F3002B00F0D7804FF6F57083426CD99F
:104010004FF0030940F6F570834201D84FF00109D3
:1040200003F10208C4F81480E6618B19236232445C
:10403000A262B9F1030F5BD0BAF1000F00F0C180AA
:104040002B446362B9F1020F63D008EB480208F019
:10405000010303EB520303F2FF13B7EB532FC0F03E
:10406000B2804FF0FF332361E36080232371B9F105
:10407000030F51D084F80090544A938C01339BB2C3
:104080009384E3802046FFF75DFD002074E000206C
:1040900004AB03EB850343F8100C0135032D0ED858
:1040A00004F130002B0103F5DF7318440379002B72
:1040B000EDD00830FFF74BFCEAE70025EEE70025DE
:1040C0000AE031462046FFF7C7FE01287FF640AFE1
:1040D0000135032D3FF63CAF04AB03EB850353F8EA
:1040E000106C002EEDD10320F2E74FF0020991E7AA
:1040F00004F15A00FFF726FC00285ED1BAF1000F48
:104100005DD104F15C00FFF722FC60624FEA880396
:10411000A1E74FEA48039EE704F16000FFF712FCB5
:104120000128A7D1711C2046FFF77BFE0028A1D1F2
:104130000023237104F22E20FFF704FC4AF65523D6
:10414000984297D104F13000FFF701FC204B9842D0
:1041500090D104F50570FFF7FAFB1E4B984289D108
:1041600004F50670FFF7F3FB206104F50770FFF715
:10417000EEFBE0607EE70B2004B0BDE8F0870C208A
:10418000FAE70020F8E70A20F6E70320F4E70A2020
:10419000F2E70120F0E70D20EEE70D20ECE70D201F
:1041A000EAE70D20E8E70D20E6E70D20E4E70D2023
:1041B000E2E70D20E0E70D20DEE70D20DCE70D2033
:1041C000DAE70D20D8E70D20D6E700BFB4020020C3
:1041D00052526141727241612DE9F04701297AD949
:1041E00043698B4279D917460C4606460378022B61
:1041F00043D0032B54D0012B01D002256EE001EBFC
:104200005108016A01EB5821FFF70BFE0546002813
:1042100064D106F1300A08F10109C8F3080814F066
:1042200001041FD01AF9083003F00F033A0102F419
:104230007F621343DBB20AF808300123F370316A5E
:1042400001EB59213046FFF7ECFD0546002845D12A
:10425000C9F3080944B1C7F307120AF8092001237A
:10426000F3703BE0FBB2E6E71AF9092022F00F02F7
:10427000C7F303273A43D2B2EFE7016A01EB1421F7
:10428000FFF7CFFD054648BB06F13000640004F49B
:10429000FF74B9B22044FFF765FB0123F3701DE002
:1042A000016A01EBD411FFF7BCFD0546B0B927F058
:1042B000704706F13003A10001F4FE715C1820463E
:1042C000FFF745FB00F0704139432046FFF74EFBF6
:1042D0000123F37002E0022500E002252846BDE834
:1042E000F087F8B50668012953D973698B4252D912
:1042F0000C463378022B2BD0032B39D0012B01D065
:10430000012047E001EB5105316A01EB55213046B0
:10431000FFF787FD002840D16F1CC5F30805354421
:1043200095F83050316A01EB57213046FFF779FD9F
:10433000B0BBC7F30803334493F8300045EA0020CC
:1043400014F0010F01D0000924E0C0F30B0021E0BC
:10435000316A01EB14213046FFF763FD18BB06F10B
:104360003000610001F4FF710844FFF7EBFA11E03F
:10437000316A01EBD4113046FFF753FDB0B9303646
:10438000A10001F4FE703044FFF7E1FA20F0704024
:1043900000E00120F8BD0120FCE74FF0FF30F9E715
:1043A0004FF0FF30F6E74FF0FF30F3E74FF0FF300C
:1043B000F0E72DE9F0410768B1F5001F3BD2064652
:1043C0000D4611F01F0F39D1716184681CB93B781B
:1043D000022B00D97C6A94B93B89B3EB551F2FD9C6
:1043E0007B6AF361B461F36993B303EB5523F36123
:1043F0003037C5F308053D44356200201CE0B7F8AE
:104400000A804FEA482845450FD321463046FFF73A
:1044100068FF0446B0F1FF3F14D0012814D97B692E
:10442000834213D9A5EB0805EDE721463846FFF78F
:10443000A7FBF061D6E70220BDE8F0810220FBE790
:104440000220F9E70120F7E70220F5E70220F3E771
:104450000220F1E72DE9F04107460668884631B9A8
:10446000F5688DB17369AB420FD801250DE0FFF7F8
:1044700038FF0346012847D9B0F1FF3F49D07269A0
:10448000824246D8454600E001252C460CE02146F4
:104490003846FFF726FF034670B1012839D0B0F146
:1044A000FF3F36D0AC4233D001347369A342EED81B
:1044B000012D2BD90224EAE74FF0FF322146304686
:1044C000FFF78AFE034610B9B8F1000F0ED1A3B969
:1044D000F46032697369023B9A4201D8013A326151
:1044E000337943F001033371234612E022464146FB
:1044F0003046FFF771FE0346E9E7012B01D00123A7
:1045000007E04FF0FF3304E0012302E0002300E066
:1045100000231846BDE8F081F8B50E46056801296C
:104520002ED9074611466B69B3422CD952B14FF0D0
:10453000FF322846FFF750FE844618B125E0264694
:10454000A24222D931463846FFF7CBFE0446F0B1ED
:1045500001281FD0B0F1FF3F1FD00022314628466E
:10456000FFF73AFE844680B92B696A69911E8B4237
:10457000E5D201332B612B7943F001032B71DEE788
:104580004FF0020C01E04FF0020C6046F8BD4FF016
:10459000000CFAE74FF0020CF7E74FF0010CF4E7DC
:1045A0002DE9F84306684569C369002B6ED02035B4
:1045B000B5F5001F6CD288460446C5F308073FB91D
:1045C0000133C361816979B93389B3EB551F07D9C9
:1045D000656106F130033B4423620020BDE8F883A7
:1045E0000023C3610420F9E77389013B13EA5523D3
:1045F000EED1FFF776FE814601284BD9B0F1FF3F9F
:104600004AD07369834239D8B8F1000F11D0A1693B
:104610002046FFF71FFF814600283FD001283FD0EA
:10462000B0F1FF3F3ED03046FFF7D1FB28B101206B
:10463000D4E70023E3610420D0E74FF400720021A7
:1046400006F13000FFF7A5F949463046FFF798FA22
:10465000F0624FF00008738998450BD20123F37084
:104660003046FFF7B4FBF8B908F10108F36A0133EB
:10467000F362F0E7F36AA3EB0803F362C4F818905F
:1046800049463046FFF77CFAE061A1E70420A5E740
:104690000420A3E70220A1E701209FE707209DE770
:1046A00002209BE7012099E7012097E770B50446B7
:1046B00006680021FFF77DFE054640B1284670BD23
:1046C00000212046FFF76CFF05460028F6D1E1697E
:1046D0003046FFF7A6FB05460028EFD1206A037895
:1046E0007BB1C37A03F03F03A371C37A13F0080FC1
:1046F000E6D10B2204F12401FFF750F90028DFD1A5
:10470000DCE70425DAE730B583B00446019105689B
:1047100001E001330193019B1A782F2AF9D05C2A1A
:10472000F7D00022A2601B781F2B1ED901A92046BA
:10473000FFF79EFA034600BB2046FFF7B7FF94F849
:104740002F200346E0B912F0040F16D1A37913F01D
:10475000100F1CD005F130016369C3F3080319443D
:104760002846FFF72AFAA060E0E7802384F82F307C
:1047700011462046FFF71DFE0346184603B030BD24
:104780000428FAD112F0040FF7D10523F5E7052329
:10479000F3E7F8B504460F4606680021FFF709FE67
:1047A0000346C0B9002508E00135BD4213D0012100
:1047B0002046FFF7F5FE034668B9E1693046FFF78A
:1047C00030FB034638B9226A1278E52AECD0002A79
:1047D000EAD00025EBE7042B01D01846F8BD0723EB
:1047E000FBE770B5044606680121FFF7D2FF0546D6
:1047F00008B1284670BDE1693046FFF712FB054657
:104800000028F6D120220021206AFFF7C2F80B22EF
:1048100004F12401206AFFF7B3F80123F370E8E7FD
:10482000F8B504460E460568042705E00021204639
:10483000FFF7B6FE0746E8B9E169D9B12846FFF7A8
:10484000F0FA0746B0B9236A1A7892B1DB7A03F01E
:104850003F03A371E52AE9D02E2AE7D00F2BE5D03C
:1048600023F02003082B14BF00230123B342DDD122
:1048700000E004270FB10023E3613846F8BD0000D3
:1048800070B50446FFF7A3FA054648B92378032B11
:1048900008D0002211466078FFF748F800B10125E2
:1048A000284670BD2379012BF3D104F130064FF473
:1048B000007200213046FFF76CF84AF6552104F2E9
:1048C0002E20FFF74FF80F493046FFF74FF80E49FB
:1048D00004F50570FFF74AF8216904F50670FFF743
:1048E00045F8E16804F50770FFF740F8E269013226
:1048F000E262012331466078FFF70CF80023237150
:10490000C7E700BF525261417272416170B584B015
:1049100001900091164604A840F8041DFFF70EFA16
:10492000041E1EDB114B03EB84031D6A25B12846D0
:10493000FFF708F900232B70019B0BB100221A70BE
:10494000019B0A4800EB8400036263B1012E02D090
:10495000002004B070BD002201A96846FFF7BAFA32
:10496000F7E70B20F5E70020F3E700BFB4020020D3
:104970002DE9F04391B00191002800F00B8105462C
:10498000164602F03F073A4603A901A8FFF7A2FA2C
:10499000044630B10CB100232B60204611B0BDE8B5
:1049A000F083039B0493019904A8FFF7ACFE04462F
:1049B00060B99DF93F30002B51DB37F0010314BF84
:1049C0000121002104A8FFF701F8044616F01C0F8E
:1049D0005BD0002C4FD0042C43D047F00807002CAC
:1049E00062D117F0080F5FD000F026FF064601469F
:1049F0000C980E30FEF7BAFF31460C981630FEF7D1
:104A0000B5FF0C9B2022DA72039EDDF83080414610
:104A10003046FFF7D2F88146002241463046FFF784
:104A2000DFF800210C981C30FEF7A0FF039B012249
:104A3000DA70B9F1000F37D0039BDE6A00224946D5
:104A400004A8FFF769FD044670BB31460398FFF7E1
:104A5000E8F9044609F1FF33039AD36024E0062401
:104A6000B4E7FEF7EDFF08B91224B6E704A8FFF794
:104A7000B8FE0446B1E79DF8163013F0110F12D1BD
:104A800016F0040FABD008240EE06CB99DF8163078
:104A900013F0100F4CD116F0020F05D013F0010FD8
:104AA00002D0072416E00724A4B917F0080F01D09C
:104AB00047F04007039BDB6A6B620C9BAB6237F0ED
:104AC000010314BF0121002104A8FEF7C9FF2861DA
:104AD00000285DD0002C7FF45DAF039EDDF83080B0
:104AE00041463046FFF769F8A86008F11C00FEF760
:104AF0002EFFE8600021E9622E60F388AB802F75FD
:104B000069752962A96105F130084FF400724046C9
:104B1000FEF73FFF17F0200F3FF43CAFEE68002E8A
:104B20003FF438AFAE61039B5F897F02A96805E05F
:104B30000424CFE7B1F1FF3F0BD0F61B5CB9BE42B6
:104B400009D92846FFF7CDFB01460128F2D80224F7
:104B5000F0E70124F1E7E961002C7FF41BAFC6F315
:104B60000803002B3FF416AF039F3846FFF708F801
:104B700008B902240FE700EB56222A6201234146BE
:104B80007878FEF7BBFE00283FF404AF012402E76B
:104B90000224FFE6092400E72DE9F04F85B0044622
:104BA0008946174698460023C8F80030009003A9AC
:104BB000FFF7F3F80646002840F09B80667D002E44
:104BC00040F09780237D13F0010F00F0A980E56885
:104BD000A369ED1ABD4256D33D4654E0E36A1BB1CA
:104BE0002046FEF7D9FF5EE0E1690098FFF779FB08
:104BF00059E0022666757CE00126667579E002269A
:104C0000667576E094F91430002B02DB4FEA4B27EF
:104C10002FE0206AA0EB0A005845F7D24FF400724B
:104C200004F1300109EB4020FEF7AAFEEEE7226A0C
:104C300052450DD094F91430002B5EDB012352460F
:104C400004F1300103984078FEF758FE002864D143
:104C5000C4F820A0A369C3F30803C3F50077BD42DD
:104C600000D22F4604F130013A4619444846FEF777
:104C700087FEB944A3693B44A361D8F800303B44A4
:104C8000C8F80030ED1B002D33D0A169C1F3080333
:104C9000002BDFD1039B5F89013F17EA512708D121
:104CA00000299BD1A0680128A3D9B0F1FF3FA3D070
:104CB000E061039B0193E1691846FEF761FF8246BC
:104CC00000289CD0BA445FEA552BB0D007EB0B0309
:104CD000019A5289934201D9A2EB070B5B465246D7
:104CE000494601984078FEF709FE00288AD001263F
:104CF0006675304605B0BDE8F08F012304F1300140
:104D000001984078FEF706FE20B9237D03F07F036B
:104D1000237593E701266675EBE701266675E8E7DC
:104D20000726E6E72DE9F04F85B00446884615468C
:104D300099460023C9F80030009003A9FFF72DF829
:104D40000746002842D1677D002F3FD1237D13F015
:104D5000020F00F0C880A369EB42C0F09A80DD43E7
:104D600097E0E36A002B35D02046FEF715FF0028B8
:104D700000F0B480012832D0B0F1FF3F32D0E061C2
:104D8000A36803B9A06094F91430002B2DDB039BBA
:104D90000193E1691846FEF7F3FE8246002835D0FC
:104DA000B2445FEA552B49D006EB0B03019A5289B6
:104DB000934201D9A2EB060B5B465246414601984D
:104DC0004078FEF7A7FD20B301276775384605B088
:104DD000BDE8F08FE1690098FFF73CFBC7E70227C9
:104DE0006775F3E701276775F0E70123226A04F18D
:104DF000300103984078FEF78DFD20B9237D03F044
:104E00007F032375C3E701276775DFE7022767750F
:104E1000DCE7216AA1EB0A01594502D34FEA4B2690
:104E200028E04FF4007208EB412104F13000FEF756
:104E3000A7FD237D03F07F032375EFE7236A534526
:104E400003D0A269E3689A423BD3C4F820A0A369C7
:104E5000C3F30803C3F50076B54200D22E4604F131
:104E60003000324641461844FEF78AFD237D63F048
:104E70007F032375B044A3693344A361E26893427E
:104E800038BF1346E360D9F800303344C9F8003026
:104E9000AD1B1DB3A169C1F30803002BD7D1039B40
:104EA0005E89013E16EA51267FF46DAF00297FF43A
:104EB00058AFA06800287FF45AAF0098FFF7CAFAED
:104EC00055E70123524604F1300101984078FEF77E
:104ED00015FD0028B9D00127677577E7237D43F0DA
:104EE0004003237572E7072770E770B582B0044668
:104EF0000D460A290DD06368002B08DB5E1C234495
:104F00001D733C2E09DC6660A3680133A36002B008
:104F100070BD0D21FFF7E9FFEDE701AB324604F16B
:104F20000C012068FFF7FEFE019B9E4202D04FF06D
:104F3000FF36E8E70026E6E74268002A10DB10B5F6
:104F400082B0044601AB00F10C010068FFF7EAFEF5
:104F500048B96268019B9A4208D1A06802B010BDAE
:104F60004FF0FF3070474FF0FF30F7E74FF0FF3062
:104F7000F4E770B582B0044601A9FEF70EFF0346C0
:104F800078B9227D12F0400F0BD012F0800F0BD1B8
:104F900000F052FC0646616A0198FEF742FF0346A4
:104FA00080B1184602B070BD0123226A04F13001BD
:104FB00001984078FEF7AEFC48BB237D03F07F03E9
:104FC0002375E5E7A56AEB7A43F02003EB72A2684C
:104FD00029462068FEF704FEE16805F11C00FEF793
:104FE000C5FC314605F11600FEF7C0FC002105F1B5
:104FF0001200FEF7B7FC019B0122DA700198FFF75F
:105000003FFC0346227D22F040022275C9E70123BE
:10501000C7E710B582B00446FFF7ABFF034610B1F7
:10502000184602B010BD01A92046FEF7B6FE0346A1
:105030000028F5D12069FEF765FD03460028EFD171
:1050400000222260ECE730B585B0019100283DD008
:105050000446002203A901A8FEF73CFF054628B13B
:105060000DB100232360284605B030BD039B2360AB
:1050700001992046FFF747FB054618BB94F92F30EE
:10508000002B08DBA37913F0100F1AD0216A0398C4
:10509000FEF793FDA060039BDB88A38000212046E0
:1050A000FFF787F9054668B9A36813B900232361A0
:1050B00008E000212046FEF7D3FC206110B912253C
:1050C000CEE70525042DCBD10525CAE70925CAE77A
:1050D00010B582B0044601A9FEF75FFE034620B971
:1050E000206928B90BB900222260184602B010BD11
:1050F000FEF708FD0346F5E770B582B005460E469B
:1051000001A9FEF74AFE044690B9A6B1002128463F
:10511000FFF786FB042800D098B931462846FEF7F1
:1051200072FD00212846FFF73BFA042800D0044610
:10513000204602B070BD00212846FFF73AF9044628
:10514000F6E70446F4E72DE9F04182B080460E46CA
:1051500017460446002501E022461446731EAB4262
:1051600012DD6B46012201A93846FFF715FD009BB1
:10517000012B09D19DF804300D2BEDD0621C23705A
:1051800001350A2BE9D11446002323701DB1404696
:1051900002B0BDE8F0810020FAE70EB42DE9F04737
:1051A0009DB025AC54F8046B014608A8FEF7F0FD4D
:1051B0001B9403E008A8FFF798FE2646741C31787C
:1051C000002900F0FE802529F4D1B21C7178302925
:1051D00004D02D2906D0002700240FE0F21CB1785E
:1051E0000127F9E7F21CB1780227F5E704EB840404
:1051F00063001944A1F1300411780132A1F13003A8
:10520000DBB2092BF2D96C2903D04C2901D0164608
:1052100003E047F00407561C1178002900F0D18004
:10522000A1F16103DBB2192B14D8A1F12003DBB289
:10523000A3F14202162A4CD8DFE802F04F3D454B5D
:105240004B4B4B4B4B4B4B4B4B524B4B4B0E4B45EA
:105250004B4B48000B46EBE71B9B1A1D1B92D3F8E8
:105260000080002500E0013518F80530002BFAD148
:1052700017F0020F10D105E020210DEB0100FFF720
:1052800034FE3D466F1CA542F6D33D4604E008F1CE
:10529000010808A8FFF729FE98F800100029F6D1A8
:1052A00005E020210DEB0100FFF71FFE3D466F1CBE
:1052B000A542F6D382E71B9B1A1D1B92197808A8FA
:1052C000FFF713FE7AE74FF00A0E0BE04FF0100ED7
:1052D00008E008A8FFF709FE70E74FF0020E01E0B2
:1052E0004FF0080E17F0040F08D01B9A101D1B90EA
:1052F0001068442B0ED04FF0000C20E0442B04D05B
:105300001B9A101D1B901068F3E71B9A101D1B9031
:105310001068EEE70028EEDA404247F00807EAE7B7
:1053200027252B44DBB20CF1010530330DF1700859
:10533000E04408F8703C72B11F2D0CD8AC46B0FBAD
:10534000FEF20EFB1203DBB21046092BEBD97829D3
:10535000E6D00725E5E717F0080F06D01CAB1D4483
:105360002D2305F8703C0CF1020517F0010F03D056
:105370004FF0300AA84607E04FF0200AFAE75146FE
:1053800008A8FFF7B2FDC84617F0020F04D108F1D4
:105390000109A045F3D3C846013D1CAB2B4413F8CB
:1053A000701C08A8FFF7A1FD002DF5D104E05146BF
:1053B00008A8FFF79AFDA84608F10105A045F6D315
:1053C000FCE608A8FFF7B8FD1DB0BDE8F04703B044
:1053D00070470000104B5B7ADBB930B40E4B5D7A3E
:1053E000EDB200245C555D7A03EB85056860587A60
:1053F000184402725A7AD2B2501CC0B2587230327B
:105400000A703A234B702F238B70CC70204630BC2F
:1054100070470120704700BFDC02002008B5002261
:10542000FFF7D8FF08BD000010B501224FF48061DE
:105430000B48FBF798FF0B4C00224FF4806120468D
:10544000FBF791FF0A20FBF719FE01224FF4806160
:105450002046FBF788FF0A20FBF710FE10BD00BFB7
:10546000000002400004024030B583B002AC04F8F2
:10547000010D0D4D00224FF480612846FBF773FFAC
:10548000002210210948FBF76EFF4FF0FF33012285
:1054900021460748FDF725FA01224FF4806128468E
:1054A000FBF761FF03B030BD000002400004024082
:1054B000E80E002070B505460E460D4C00224FF454
:1054C00080612046FBF74FFF012210210948FBF7BE
:1054D0004AFF4FF0FF33B2B229460748FDF701FA01
:1054E00001224FF480612046FBF73DFF70BD00BFF5
:1054F0000000024000040240E80E0020002303E008
:10550000FF21054AD1540133B3F5846F03D200283B
:10551000F6D10021F5E77047E802002010B500241D
:1055200014E0A4F15000C0B2FFF79EFF0020FFF787
:105530009BFF1020FFF798FF04EB44129300842197
:1055400004481844FFF7B6FF0134E4B2072CE8D949
:1055500010BD00BFE802002008B5FFF765FF64201A
:10556000FBF78CFDAE20FFF77FFF2020FFF77CFFCD
:105570001020FFF779FFB020FFF776FFC820FFF774
:1055800073FF0020FFF770FF1020FFF76DFF402032
:10559000FFF76AFF8120FFF767FF4020FFF764FFF6
:1055A000A120FFF761FFA620FFF75EFFA820FFF70D
:1055B0005BFF3F20FFF758FFA420FFF755FFD320E4
:1055C000FFF752FF0020FFF74FFFD520FFF74CFFFA
:1055D000F020FFF749FFD920FFF746FF2220FFF711
:1055E00043FFDA20FFF740FF1220FFF73DFFDB20EB
:1055F000FFF73AFF2020FFF737FF8D20FFF734FF3A
:105600001420FFF731FFAF20FFF72EFF0020FFF738
:1056100075FFFFF783FF054B0022A3F82024A3F8B2
:105620002224012283F8252408BD00BFE8020020BF
:10563000832818D83F2916D8124B93F8243413B175
:10564000B2FA82F25209012A0ED0CA0802EB4212C3
:105650009300184401F0070101238B40094A115CB3
:1056600021EA030111547047CA0802EB4212930069
:10567000184401F0070101238B40024A115C1943D1
:1056800011547047E80200202DE9F04F83B002ACBE
:1056900004E90600284AB2F820249DF8006032444C
:1056A000832A43DC244AB2F822249DF801A0D34681
:1056B00052443F2A3EDC98468146002523E01E4B9B
:1056C000B3F82004B3F8221429442044B8FA88F22D
:1056D0005209C9B2C0B2FFF7ABFF0134A64211D9DB
:1056E00007FA04F313F4004FE9D0134BB3F8200486
:1056F000B3F82214294420444246C9B2C0B2FFF78D
:1057000097FFEAE70135AA4508D9A9F1200303FB71
:105710000B53019A32F813700024DFE7064BB3F8FD
:1057200020241644A3F82064484600E0002003B07B
:10573000BDE8F08F0020FAE7E802002070B582B0E3
:10574000054602A800E906001E462C785CB13346E7
:1057500002AA12E906002046FFF796FF2C78A04225
:1057600001D10135F1E7204602B070BD024BA3F82C
:105770002004A3F822147047E802002000B583B08B
:10578000009313460A4601460348FCF72BFC00B180
:10579000012003B05DF804FB8010002000B583B049
:1057A000009313460A4601460348FCF727FD00B163
:1057B000012003B05DF804FB8010002008B5034809
:1057C000FCF7DDFF043818BF012008BD8010002061
:1057D00008B501460148FCF7C0FF08BD8010002055
:1057E00000B583B001238DF8073000F027F810B919
:1057F00000238DF807309DF8070003B05DF804FB27
:1058000008B5FFF7EDFF012801D0012008BD0248CF
:10581000FCF78AFFFAE700BF8010002008B50349B3
:105820000348FFF7FBFD034B187008BD84070020F9
:10583000C0DE0008800700200020704708B5402126
:105840000348FBF789FD08B1002008BD0120FCE7F3
:105850000000024008B5064B064A1A60064A5A6024
:10586000064A9A60064ADA6001F0B2F908BD00BF44
:1058700020000020196D0008716D0008C16D00083E
:105880001D6E000830B58DB00146002409E0C4EB60
:10589000C405254A2A442025D5540133062BF6DDBC
:1058A0000134224B1B69A34201DD0023F6E7684661
:1058B000FFF7C9FB30BB002514E01D4B23445A7A87
:1058C000C5EBC501184B0B441A55013420221A555B
:1058D0001848FBF7F5F9A042EFD8154A9369013350
:1058E0009361013512496846FFF706FC20B9104B59
:1058F0005B7A0BB10024EBE76846FFF7E9FB002079
:105900000DB030BD0020FFF7F9FD0A211420FFF78C
:105910002DFF094A012306CA0848FFF70FFFFFF7CA
:10592000FDFD0120ECE700BFE80B00202000002077
:105930001007002019070020180000203CDF000895
:10594000014B5869704700BF2000002070B582B03D
:105950000020FFF7D3FD334D297E287FFFF706FF98
:10596000314C012394E806003E20FFF78DFE002114
:105970000846FFF7FBFE012394E806002B48FFF7DB
:10598000DDFE14214620FFF7F1FE294E294B9A69CE
:10599000314601A802F0F2FA012394E8060001A8BA
:1059A000FFF7CCFE14215A20FFF7E0FE6A6931466A
:1059B000684602F0E3FA012394E806006846FFF720
:1059C000BDFE2D6A053D012601E001350136154B6E
:1059D0001B6AAB4223DD00240C2CF6DCC5EBC502B0
:1059E000154B13441B5D202BEFD006EB86035900AB
:1059F0000231C4EBC400143001F0FE01C0B2FFF765
:105A0000B5FE094AC5EBC5030B481844012306CA75
:105A1000005DFFF739FEFFF781FD0134DCE702B0DE
:105A200070BD00BF200000201800002050DF0008DB
:105A300064DF000810070020E80B002000B5ADF57A
:105A40004D7D0020144B9861FFF758FDFFF7D8FEFD
:105A500028B1FFF77BFF0DF54D7D5DF804FB0122BA
:105A60000E4940A8FEF752FF78B10020FFF746FD2F
:105A70000A211420FFF77AFE094A012306CA0948C1
:105A8000FFF75CFEFFF74AFDE3E72F23ADF8003098
:105A90006846FFF7F7FEDCE71007002020E100086A
:105AA000180000203CDF000808B5074B5B69012B9C
:105AB00007DD054A013B5361136A062B01DD013BFB
:105AC0001362FFF743FF08BD2000002008B50A4B12
:105AD0009B69591E094A5269914202DD0132074908
